:100000000C9460010C9488010C9488010C94880174
:100010000C9488010C9488010C9488010C9488013C
:100020000C9488010C9488010C946C030C94DE03EE
:100030000C9488010C9488010C9488010C9488011C
:100040000C9488010C9488010C9488010C9488010C
:100050000C9488010C9488010C9488010C94C907B5
:100060000C9488010C9488010C9488010C948801EC
:100070000C9488010C9488010C9488010C948801DC
:100080000C9488010C9488010C9488010C948801CC
:100090000C9488010C9488010C9488010C948801BC
:1000A0000C9488010C9488010C9488013306360660
:1000B000250629062F065706570657063A063E0616
:1000C000420648064C065706520600000000000093
:1000D00000002A2B280000000000000000000000A3
:1000E000000000000000000000002C9EB4A0A1A2AF
:1000F000A434A6A7A5AE362D3738271E1F202122EF
:1001000023242526B333B62EB7B89F8485868788E7
:10011000898A8B8C8D8E8F909192939495969798D7
:10012000999A9B9C9D2F3130A3AD35040506070895
:10013000090A0B0C0D0E0F101112131415161718B7
:10014000191A1B1C1DAFB1B0B5000000000024003F
:1001500027002A002D0030000000000025002800A4
:100160002B002E003100080B0002020201000904DE
:100170000000010202000005240010010524010115
:10018000010424020605240600010705810310006E
:100190004009040100020A000000070502024000B5
:1001A00000070583024000000403090441726475DE
:1001B000696E6F204C4C430041726475696E6F200C
:1001C0004C656F6E6172646F0012010002000000E6
:1001D000404123368000010102030112010002EFB9
:1001E00002014041233680000101020301000000AA
:1001F000002300260029002C002F0004040404041E
:1002000003040502020202040302020202060606B9
:100210000606060404020202040404080201104057
:10022000804010204080408008020401804020105F
:100230000201108010204040200000000200090F41
:100240000000030401000C0000000000000000009A
:10025000000000000000000005010902A1010901E1
:10026000A100850105091901290315002501950340
:100270007501810295017505810305010930093178
:1002800009381581257F750895038106C0C00501D1
:100290000906A1018502050719E029E715002501D6
:1002A0007501950881029501750881039506750809
:1002B000150025650507190029658100C0007A0F22
:1002C00011241FBECFEFDAE0DEBFCDBF11E0A0E00A
:1002D000B1E0EEE9F0E202C005900D92A038B1075E
:1002E000D9F723E0A0E8B1E001C01D92AE34B20717
:1002F000E1F711E0C0E6D1E004C02197FE010E94C1
:100300003310CF35D107C9F70E94740A0C944D10F1
:100310000C9400004091B1015091B2012091AF01C5
:100320003091B00142175307B4F49091E8009570F2
:10033000E1F39091E80092FD19C08093F100809163
:10034000B1019091B20101968F739927892B19F40D
:100350008EEF8093E8008091B1019091B2010196F7
:100360009093B2018093B10181E0089580E00895F7
:10037000CF92DF92EF92FF920F931F93CF93DF9371
:100380001F92CDB7DEB7182F062FE42E862F880FC9
:100390008E5F99830E948A0183E00E948A01F12E78
:1003A000C12E9981D92E8C2D8F19801798F4F601C2
:1003B000E7FE02C0849101C080810E948A01182F4B
:1003C00080E00E948A018123FFEFCF1ADF0A8111AA
:1003D000EACF01C081E00F90DF91CF911F910F9183
:1003E000FF90EF90DF90CF900895DF92EF92FF9211
:1003F0000F931F93CF93DF93D82E8A017B01E40ED6
:10040000F51EEB01CE15DF0571F0D7FE03C0FE012E
:10041000849101C088810E948A0121968111F2CFC6
:100420008FEF9FEF01C0C801DF91CF911F910F9116
:10043000FF90EF90DF900895615030F02091F1002F
:10044000FC0120830196F8CF289884E68093D3029C
:100450000895CF92DF92EF92FF920F931F93CF9365
:10046000DF936C017A018B01C0E0D0E0CE15DF058F
:1004700089F0D8016D918D01D601ED91FC9101902B
:10048000F081E02DC6010995892B11F47E0102C08F
:100490002196ECCFC701DF91CF911F910F91FF9073
:1004A000EF90DF90CF9008958091A60181110DC04B
:1004B00082E08093A20184E08093A3011092A501C1
:1004C0001092A40181E08093A60182EA91E0089550
:1004D0000F931F93CF93DF931F92CDB7DEB782E0C8
:1004E000898342E450E066E671E080E80E94F5010D
:1004F0000E945402DC0112960D911C911397011574
:10050000110569F0D801ED91FC910280F381E02D95
:10051000BE016F5F7F4FC801099597FF07C08981B2
:100520000F90DF91CF911F910F910895F8010085F1
:100530001185E5CFDC01FB0112968C91129790E0BA
:100540002481358182179307D1F491818081813A8A
:1005500031F481E0913091F0933089F411C081320F
:1005600071F49B3021F482811F968C9305C09A30E0
:1005700031F4828150968C9381E00895089580E053
:100580000895DC01FB0188E4808389E4818384E4AD
:1005900082831D969C911D979F709F5B93831D96F0
:1005A0008D919C911E9724E0969587952A95E1F769
:1005B0008F708F5B848385E00895EF92FF920F9395
:1005C0001F93CF93DF93FB012081213851F52381C5
:1005D000223239F5DC0112962C9130E044815581AC
:1005E00042175307F1F4EC010B851C85E12CF12C2B
:1005F0000115110591F0F8014481558162817381E3
:1006000080E80E94F5018F3FFFEF9F0769F0E80E39
:10061000F91ED8010D911C91EBCF81E08F87C701A6
:1006200005C080E090E002C08FEF9FEFDF91CF9197
:100630001F910F91FF90EF900895CF93DF93CDB767
:10064000DEB769970FB6F894DEBF0FBECDBFFC01D1
:10065000DB018C918F5F8C93BE016F5F7F4F89E1CF
:10066000DB011D928A95E9F729E0298384E08A83DA
:1006700091E09D8383E08E832A8721E22B879C87EC
:100680009D879F8722E2288B27E02B8B25E02C8BF0
:100690008E8B20E430E0388F2F8B998F82818B8373
:1006A00095858685998B8A8B838180688D8B49E1BE
:1006B00050E080E00E94F50169960FB6F894DEBF25
:1006C0000FBECDBFDF91CF910895FC0182818F5B7A
:1006D000FB01808381E008951F920F920FB60F9265
:1006E00011248F939F938091E1009091E100937F7B
:1006F0009093E10083FF0FC01092E90091E0909386
:10070000EB001092EC0092E39093ED001092D40273
:1007100098E09093F00082FF20C093E09093E9006E
:100720009091F200992319F09AE39093E800909148
:10073000B301992339F09091B30191509093B30193
:10074000992389F19091D302992339F09091D302A2
:1007500091509093D302992341F184FF10C080916E
:10076000E2008E7E81608093E2008091E1008F7EC6
:100770008093E1008091B5018E7E806111C080FF81
:1007800016C08091E2008E7E80618093E2008091AD
:10079000E1008E7E8093E1008091B5018E7E8160C4
:1007A0008093B50104C05D9ACDCF289AD6CF9F9192
:1007B0008F910F900FBE0F901F9018951F920F9260
:1007C0000FB60F921124CF92DF92EF92FF920F9308
:1007D0001F932F933F934F935F936F937F938F93C9
:1007E0009F93AF93BF93EF93FF93CF93DF93CDB7D7
:1007F000DEB76C97DEBFCDBF1092E9008091E800B4
:1008000083FFFAC168E0CE0145960E941C0282EF88
:100810008093E8008D8987FF05C09091E80090FFE4
:10082000FCCF03C09EEF9093E800982F907609F0DC
:10083000C6C09E892F89188D91110CC0803829F46B
:100840008091B6018093F10002C01092F1001092E5
:10085000F10047C1422F50E0512B913051F48111EA
:1008600040C14130510509F03CC18091B6018D7FF6
:100870000BC0933061F4811134C14130510509F04E
:1008800030C18091B60182608093B6012AC1953053
:1008900041F48091E80080FFFCCF20682093E300C2
:1008A00020C1963009F05FC0EB8CFC8C1092E900FF
:1008B0001092B2011092B101123091F51092B00174
:1008C0001092AF010E94680299E0BE016F5F7F4FF6
:1008D000DB01E92F1D92EA95E9F799831A8391E0EC
:1008E0009E8390EA98879AEF99872091B101309181
:1008F000B201275F3F4F3C832B838D831092E90029
:100900001092B2011092B101F092B001E092AF01E9
:1009100049E050E080E00E94F5010E946802E1C0D9
:10092000F092B001E092AF010E945402DC011296F5
:10093000ED90FC901397E114F10409F4C0C0D701C5
:10094000ED91FC910480F581E02DBE016B5E7F4F3F
:10095000C7010995009719F00CF0C3C0C6C0F70194
:10096000E084F184E8CF973009F4BFC0983021F4D7
:1009700081E08093F100B5C0993009F0B2C0837076
:1009800009F0B3C0E1E0F1E081E021E036E39081DD
:10099000992361F08093E9002093EB00919190936B
:1009A000EC003093ED008F5F873089F78EE78093FE
:1009B000EA001092EA008F898093D40292C08B8D56
:1009C0009C8D1092E9001092B2011092B1019093A7
:1009D000B0018093AF01898D811156C08E899D89A8
:1009E000913A59F4813209F080C047E050E06BE061
:1009F00071E080E00E94F50174C0913209F075C089
:100A0000833289F4888D90E0982F88272F89822B54
:100A1000A0E0B0E08093070190930801A093090142
:100A2000B0930A015EC0803269F48091E80082FFD1
:100A3000FCCF67E08BE091E00E941C028BEF80937B
:100A4000E80006C0823209F04CC08F898093120101
:100A50008091B401882319F0EEEFFAE002C0E0E0E3
:100A6000F8E080910B0190910C01A0910D01B091E3
:100A70000E01803B9440A105B10509F088C080912A
:100A8000120180FFA0C083C00E945402DC011296B4
:100A90000D911C9113970115110539F1D801ED91B4
:100AA000FC910190F081E02DBE016B5E7F4FC8018B
:100AB0000995811116C0F80100851185ECCF113020
:100AC000C1F0133091F48F89882309F455C0823026
:100AD000E9F440E860E188EB91E00E94B8018823E6
:100AE00021F08EEF8093E80087C081E28093EB00D5
:100AF00083C08B8D9C8D089711F41093AE0180916B
:100B0000AE01811136C069EC71E038C0813029F442
:100B100040E86BE08CEA91E0E0CF833031F70E944F
:100B20005402DC011296ED90FC9013978E010F5F3A
:100B30001F4F6801E114F10479F0D701ED91FC91A8
:100B40000680F781E02DB801C7010995080F111D36
:100B5000F701E084F184EECFD8011C92F6010190F8
:100B60000020E9F73197BF016C197D0940E0C6010B
:100B7000B4CF6BED71E002C068EA71E061157105F8
:100B800009F4B3CFFB01449150E080E833CF0FB6B6
:100B9000F894A8958091600088618093600010921D
:100BA00060000FBEA895EE3F2AE0F20739F0809171
:100BB000FE0A9091FF0A9183808393CF1092FF0ADF
:100BC0001092FE0A8ECFEE3F8AE0F80731F0808166
:100BD00091819093FF0A8093FE0A87E797E79183BC
:100BE00080839BE088E10FB6F894A895809360001D
:100BF0000FBE9093600075CF6C960FB6F894DEBF71
:100C00000FBECDBFDF91CF91FF91EF91BF91AF911B
:100C10009F918F917F916F915F914F913F912F9114
:100C20001F910F91FF90EF90DF90CF900F900FBE2C
:100C30000F901F90189590E0FC013197EF30F1056F
:100C4000B0F5EA5AFF4F0C943310809180008F77F3
:100C500003C0809180008F7D8093800008958091F3
:100C60008000877FF9CF84B58F7702C084B58F7DF0
:100C700084BD0895809190008F7707C08091900087
:100C80008F7D03C080919000877F809390000895AE
:100C90008091C0008F7703C08091C0008F7D8093CA
:100CA000C00008958091C200877F8093C20008959C
:100CB0001F93CF93DF93282F30E0F901E75CFD4FBE
:100CC0008491F901E65EFD4FD491F901E550FE4FA4
:100CD000C491CC23C9F0162F81110E941B06EC2F62
:100CE000F0E0EE0FFF1FE85AFE4FA591B4918FB7C9
:100CF000F894111105C09C91ED2FE095E92302C0F5
:100D0000EC91ED2BEC938FBFDF91CF911F91089564
:100D1000CF93DF9390E0FC01E65EFD4F2491FC0150
:100D2000E550FE4F8491882361F190E0880F991F70
:100D3000FC01E65BFE4FC591D491FC01E85AFE4FE1
:100D4000A591B491611109C09FB7F894888120954D
:100D500082238883EC912E230BC0623061F49FB70D
:100D6000F8943881822F809583238883EC912E2BF1
:100D70002C939FBF06C08FB7F894E8812E2B288351
:100D80008FBFDF91CF9108953FB7F89480919E0176
:100D900090919F01A091A001B091A10126B5A89BBF
:100DA00005C02F3F19F00196A11DB11D3FBFBA2FFD
:100DB000A92F982F8827820F911DA11DB11DBC015D
:100DC000CD0142E0660F771F881F991F4A95D1F722
:100DD00008958F929F92AF92BF92CF92DF92EF923F
:100DE000FF926B017C010E94C4064B015C01C1149F
:100DF000D104E104F104F1F00E94C406DC01CB014E
:100E000088199909AA09BB09883E9340A105B10533
:100E100070F321E0C21AD108E108F10888EE880ECB
:100E200083E0981EA11CB11CC114D104E104F1049B
:100E300019F7DDCFFF90EF90DF90CF90BF90AF908C
:100E40009F908F9008958F929F92AF92BF92CF9272
:100E5000DF92EF92FF920F931F93CF93DF9300D017
:100E60001F92CDB7DEB7382F8B018091D40281114C
:100E700003C08FEF9FEF7DC08091B50180FF05C05B
:100E80008091E00082608093E0004A018AEFF82EB2
:100E9000832F8770E82E9FE3C92E832F8072B82E90
:100EA0002AE3D22E832F8074A82E8114910409F492
:100EB00057C08FB7F894E092E9009091E80095FF51
:100EC00005C09091F2002C2D291B01C020E08FBF9E
:100ED000211110C0FA94FF2061F261E070E080E01F
:100EE00090E039834A835B830E94E90639814A8115
:100EF0005B81DBCF822F90E0881699060CF4282DB9
:100F00006FB7F894E092E9008091E80085FF26C071
:100F1000822F90E0881A990ABB2029F02150A8F06E
:100F20001092F100FBCFF80137FF07C0215058F0B5
:100F300074917093F1003196F9CF215020F07191A6
:100F40007093F100FACF080F191F8091E80085FF18
:100F50000DC08114910411F4A11008C06FBFA5CF7A
:100F60005D9884E68093B301CA0103C0D092E80083
:100F7000F5CF0F900F900F90DF91CF911F910F91B0
:100F8000FF90EF90DF90CF90BF90AF909F908F90A9
:100F900008951F920F920FB60F9211242F933F9333
:100FA0008F939F93AF93BF9380919A0190919B01F0
:100FB000A0919C01B0919D013091990123E0230FF4
:100FC0002D3720F40196A11DB11D05C026E8230F81
:100FD0000296A11DB11D2093990180939A019093CF
:100FE0009B01A0939C01B0939D0180919E019091E3
:100FF0009F01A091A001B091A1010196A11DB11D79
:1010000080939E0190939F01A093A001B093A101B2
:10101000BF91AF919F918F913F912F910F900FBEF4
:101020000F901F901895AF92BF92CF92DF92EF92E0
:10103000FF920F931F93CF93DF931F92CDB7DEB72D
:101040007C0169836A01590141E050E0BE016F5F94
:101050007F4FFC0183810E9423078C0197FD0BC009
:10106000F7018381A501B60180640E94230797FDE3
:1010700002C0800F911F0F90DF91CF911F910F91B0
:10108000FF90EF90DF90CF90BF90AF900895809148
:10109000910181116BC081E080938401809385016F
:1010A0002AE831E03093870120938601109289016C
:1010B0001092880127E131E0309381012093800173
:1010C00010928C0110928B0110928E0110928D0162
:1010D00080938F018093900181EC80938A010E941C
:1010E0005402FC0121818091840190E0820F911DC6
:1010F000089724F081E08093910138C0A281B381E8
:10110000109729F480E891E0938382830EC01896AB
:101110008D919C911997009711F0DC01F8CF80E830
:1011200091E019969C938E93189780818093820109
:10113000818180938301908180918501890F8083D3
:1011400080E0909184018917A8F6A0918601B09162
:101150008701A80FB11D9C91A181B0E0A050BF4FA5
:101160009C9391819F5F91838F5FEBCF80E891E0AB
:101170000895CF93DF93DC01683810F0685825C0DC
:10118000E62FF0E067FF12C0E058F10981E090E03F
:1011900001C0880FEA95EAF7809514969C91149700
:1011A000892314968C93149760E00FC0E653FF4F89
:1011B0006491662329F167FF08C014968C911497F7
:1011C0008D7F14968C9314976F77FD01369686E089
:1011D000662321F09081961301C0108281503196D0
:1011E0008111F6CFED010E944708AE014C5F5F4FC1
:1011F00028E030E062E00E94130881E090E002C045
:1012000080E090E0DF91CF910895CF93DF93DC01F0
:10121000683810F068582DC0E62FF0E067FF11C065
:10122000E058F10981E090E001C0880FEA95EAF703
:1012300014969C911497892B14968C93149760E0C4
:1012400018C0E653FF4F6491611109C081E090E03E
:1012500013969C938E93129780E090E046C067FFB0
:1012600008C014968C911497826014968C931497EE
:101270006F7716968C911697861751F117968C9169
:101280001797861729F118968C911897861701F1F0
:1012900019968C9119978617D9F01A968C911A97EE
:1012A0008617B1F01B968C911B97861789F0FD016C
:1012B000369680E090E02191211105C0FD01E80FF4
:1012C000F91F668305C0019686309105A1F7BECF50
:1012D000ED010E944708AE014C5F5F4F28E030E00F
:1012E00062E00E94130881E090E0DF91CF910895C1
:1012F000EF92FF921F93CF93DF93EC01162F0E9482
:1013000005097C01612FCE010E94B908C701992708
:10131000DF91CF911F91FF90EF900895FC01809194
:10132000D402811103C08FEF9FEF08959FB7F89407
:1013300082E08093E9002091F20030E0121613065B
:1013400014F421E030E02115310559F0289884E6A5
:101350008093D3028091F10080838091F2008823F2
:1013600019F09FBFC90108958BE68093E800F9CF7B
:10137000CF93DF931F92CDB7DEB76983DC01ED9188
:10138000FC910280F381E02D41E050E0BE016F5FEF
:101390007F4F09950F90DF91CF91089583E080935F
:1013A000E9008091F200882319F08AE38093E80035
:1013B0000895CF93DF931F92CDB7DEB7FC018485EC
:1013C000958597FD05C02FEF3FEF358724870BC02C
:1013D000CE0101960E948E09019719F4898190E04F
:1013E00002C08FEF9FEF0F90DF91CF9108950F9381
:1013F0001F93CF93DF931F92CDB7DEB78C01FC0113
:101400008485958597FF0EC0CE0101960E948E09B6
:10141000019719F4298130E002C02FEF3FEFF80166
:1014200035872487F801848595850F90DF91CF91CA
:101430001F910F910895FC018485958597FD0BC040
:101440009FB7F89482E08093E9008091F2009FBFFB
:1014500090E0019608959FB7F89482E08093E900A8
:101460008091F2009FBF90E00895CF93DF93EC014D
:1014700080911201882331F083E00E94230718161F
:10148000190634F081E090E09B838A8380E090E04D
:10149000DF91CF910895CF93DF9300D000D0CDB7E7
:1014A000DEB79091D50299838A836B831C820E9458
:1014B000470824E030E0AE014F5F5F4F61E00E94DB
:1014C00013080F900F900F900F90DF91CF91089518
:1014D0009091D502892B891731F08093D50260E075
:1014E00080E00C944B0A0895789484B5826084BDA2
:1014F00084B5816084BD85B5826085BD85B5816018
:1015000085BD80916E00816080936E001092810095
:101510008091810082608093810080918100816050
:101520008093810080918000816080938000809111
:1015300091008260809391008091910081608093FE
:101540009100809190008160809390008091C10013
:1015500084608093C1008091C10082608093C1004B
:101560008091C10081608093C1008091C30081603F
:101570008093C3008091C00082608093C0008091FE
:10158000C20081608093C20080917A008460809361
:101590007A0080917A00826080937A0080917A004C
:1015A000816080937A0080917A00806880937A00CD
:1015B0001092D4021092B6011092B5018091D7001A
:1015C00081608093D70080EA8093D80089B58061DC
:1015D00089BD89B5826089BD09B400FEFDCF61E097
:1015E00070E080E090E00E94E9068091D8008F7C56
:1015F00080618093D8008091E000807F8093E0003C
:101600008091E1008E7E8093E1008DE08093E20086
:10161000559A209AEEEFFFE7859194918B3F9C4D70
:1016200019F481E08093B401C3E4D1E08E01D801C4
:10163000FC900E5F1F4F60E08F2D0E94880660E0D7
:101640008F2D0E945806B1E007361B0781F760E036
:1016500089E00E94880660E08AE00E94880660E0D7
:101660008BE00E94880660E089E00E94580660E0F6
:101670008AE00E94580660E08BE00E94580661E014
:101680008EE00E94880661E080E10E94880660E0AA
:101690008EE00E94580660E080E10E9458068EE0CD
:1016A00090E09093BA018093B9018CE090E0909320
:1016B000BC018093BB016FE171E0E1EFF1E015EE59
:1016C000E12E11E0F12E21E088812296D7018C9342
:1016D000DB018D919D91BD01D70112969C938E9354
:1016E0001197AF0149505109DA011C924F5F5F4FCA
:1016F000DA011C924F5F5F4FDA011C924F5F5F4F20
:10170000DA011C924F5F5F4FDA011C924F5F5F4F0F
:10171000DA011C924F5F5F4FDA011C928F01025079
:101720001109D8011C92DF011E92108297FF02C09E
:10173000D80103C00197029710F42C9301C02083B5
:10174000BDE0EB0EF11C3D9631E0C736D30709F042
:10175000BBCFC4E0D0E060E089E00E94880661E091
:1017600089E00E94580661E08AE00E94880661E0F4
:101770008AE00E94580661E08BE00E94880660E0E3
:101780008BE00E94580662E370E080E090E00E94E7
:10179000E90660E089E00E94880660E089E00E9436
:1017A000580661E08AE00E94880660E08AE00E94B4
:1017B000580661E08BE00E94880661E08BE00E94A1
:1017C000580662E370E080E090E00E94E90661E084
:1017D00089E00E94880661E089E00E94580661E085
:1017E0008AE00E94880660E08AE00E94580660E075
:1017F0008BE00E94880660E08BE00E94580662E35E
:1018000070E080E090E00E94E90661E089E00E94DB
:10181000880660E089E00E94580661E08AE00E9444
:10182000880661E08AE00E94580660E08BE00E9432
:10183000880660E08BE00E94580662E370E080E07A
:1018400090E00E94E906219709F085CFC4E0D0E03E
:1018500061E089E00E94880661E089E00E94580604
:1018600060E08AE00E94880660E08AE00E945806F4
:1018700061E08BE00E94880660E08BE00E945806E1
:1018800064E670E080E090E00E94E90661E089E0B3
:101890000E94880660E089E00E94580660E08AE0C5
:1018A0000E94880660E08AE00E94580661E08BE0B2
:1018B0000E94880661E08BE00E94580664E670E0B2
:1018C00080E090E00E94E906219711F68824839435
:1018D000912CB6E9CB2ED12CFDE02F2EE5EEAE2ECD
:1018E000E1E0BE2EE12CF12C5090B701C52DD0E0E7
:1018F0002E9CF0012F9CF00D1124EB51FE4FEC0FAC
:10190000FD1F63807090B801072D862D90E0072C95
:1019100002C0959587950A94E2F78170D5011696D5
:101920008C9316972C9130E0F901E75CFD4F849180
:10193000F901E65EFD4F4490F901E550FE4F349009
:10194000332079F081110E941B06E32DF0E0EE0FA9
:10195000FF1FE351FE4FA591B491EC91E42109F0F2
:10196000B2C2C401072C01C0880F0A94EAF7682AA2
:101970002E9CF0012F9CF00D1124EB51FE4FEC0F2B
:10198000FD1F6382BFEFEB1AFB0AEDE0AE0EB11C48
:10199000F2E1EF16F10409F0A7CF940102C0220F83
:1019A000331F0A95E2F7ECEEF1E02497DF01AC0F6C
:1019B000BD1F8C9190E082239323892B19F08081A5
:1019C0008F5F8083DF0111978C91882319F08081CC
:1019D000815080833D9642E0E63DF40739F781E08F
:1019E000870D883019F08093B8010BC01092B801B0
:1019F00081E0850D833019F08093B70102C0109209
:101A0000B7011092BD014DEEE42E41E0F42ECEEB75
:101A1000D1E051EF452E51E0552E8E0165EEA62EF8
:101A200061E0B62E33243394D7018C91F2013397C1
:101A300080833297882351F1808190E02091BB010F
:101A40003091BC0133963F0182179307ACF430927A
:101A5000BD011C92D2018C91882331F0F501618186
:101A600086ED92E00E94B908D3018C91882331F170
:101A7000F8011182108222C080818823F9F0F801D8
:101A80008081918101969183808318C0808190E04C
:101A90002091B9013091BA01281739077CF43092AE
:101AA000BD01D7013C92F2018081882339F0D50134
:101AB00011966C9186ED92E00E940509BDE0EB0E57
:101AC000F11CEDE0AE0EB11C0E5F1F4FFDE04F0E9E
:101AD000511C21E0023E120709F0A6CF8091BD0102
:101AE000811117C08091E2019091E301019663E2B8
:101AF00070E00E941F109093E3018093E201892B14
:101B000009F0D9C0E0E0F0E030E010E020E040E093
:101B10004FC035EEE32E31E0F32E00E010E0F80187
:101B2000EB51FE4F8385882379F18085882381F0EE
:101B3000D70111968D919C9112978130910511F4E6
:101B400081E003C0029701F582E00E94680A1CC090
:101B500081858823C9F0F7018181928181309105C7
:101B600029F49091D502892F8E7F06C0029761F4E7
:101B70009091D502892F8D7F891731F08093D502FE
:101B800060E080E00E944B0A035F1F4FFDE0EF0E14
:101B9000F11C0A3E110519F6A5CF18968C911897DD
:101BA00081110FC03D962296EA3EF10509F466C008
:101BB000DF01AB51BE4F1A968C911A97882391F38F
:101BC000ECCF11968D919C9112978F3F5FEF950707
:101BD00091F4888199818B36AFEF9A070CF47EC11E
:101BE0008C3DB5E09B070CF07BC1B6010E941F1035
:101BF00031E0360FD7CF8E3F5FEF950791F48881A4
:101C000099818B36AFEF9A070CF46CC18C3DB5E02F
:101C10009B070CF069C1B6010E941F1011E0160F5E
:101C2000C1CF8D3F5FEF950791F4888199818B3605
:101C3000AFEF9A070CF45AC18C3DB5E09B070CF04E
:101C400057C1B6010E941F1041E0460FABCF04966A
:101C500009F0A8CF888199818B36AFEF9A0754F0AD
:101C60008C3DB5E09B0744F4B6010E941F1021E0B3
:101C7000260F98CF21E096CF2AE094CF612F4423FE
:101C800031F0211103C0242F219501C020E0112340
:101C900019F0311106C008C0332319F0632F619584
:101CA00003C0222341F060E0660F660F822F880F89
:101CB000880F0E944B0A60E089E00E94880660E07D
:101CC0008AE00E94880660E08BE00E94880660E05F
:101CD00089E00E94580660E08AE00E94580660E0B1
:101CE0008BE00E9458068091E4018F5F66E00E94BD
:101CF00013109093E401911113C08091ED0188239A
:101D000009F487C060E089E00E94880661E089E00C
:101D10000E94580661E08AE00E94880661E06EC079
:101D2000913099F48091FA01882309F472C061E03E
:101D300089E00E94880661E089E00E94580661E01F
:101D40008AE00E94880660E014C09230B9F4809165
:101D50000702882309F45DC061E089E00E948806DB
:101D600060E089E00E94580661E08AE00E948806EF
:101D700061E08AE00E94580660E044C0933079F444
:101D800080911402882309F444C060E089E00E9435
:101D9000880660E089E00E94580661E00FC0943038
:101DA000D1F4809121028823A1F161E089E00E94B1
:101DB000880660E089E00E94580660E08AE00E94A0
:101DC000880660E08AE00E94580661E08BE00E948D
:101DD000880661E01BC09530E1F480912E028823D3
:101DE000C1F061E089E00E94880661E089E00E941C
:101DF000580660E08AE00E94880660E08AE00E945F
:101E0000580661E08BE00E94880660E08BE00E944B
:101E1000580680E090E0C0E020E0FC01EB51FE4F6E
:101E20003085332331F03485311102C0C1E001C067
:101E300021E00D968A3E910581F7222331F061E081
:101E40008EE00E9458065D9805C060E08EE00E941A
:101E500058065D9ACC2331F061E080E10E9458067B
:101E6000289805C060E080E10E945806289A0E94E8
:101E7000C4062091D1023091D202621B730B709381
:101E8000D0026093CF02683EE2E07E0774F488EEF1
:101E900092E0861B970B8130910539F0880F991FCE
:101EA000880F991F05970197F1F70E94C406709358
:101EB000D2026093D10280E090E0892B09F40ECD2C
:101EC0000E94000009CDC4010090B80102C0880F33
:101ED000991F0A94E2F7809568224ACD31E062CEDC
:101EE0003AE060CE11E05ECE1AE05CCE41E05ACE20
:101EF0004AE058CE1092E5021092E40288EE93E098
:101F0000A0E0B0E08093E6029093E702A093E8029D
:101F1000B093E9028BE691E09093E3028093E202B2
:101F20008FEF9FEF9093EF028093EE021092D50215
:101F300080913803811113C0109233031092320341
:101F400088E592E0909335038093340386E390E034
:101F5000909337038093360381E0809338030E9487
:101F60004708FC01A385B485109729F482E393E028
:101F7000948783870BC08D919C911197009711F0E6
:101F8000DC01F9CF82E393E08D939C932585368520
:101F90008091360390913703820F931F9687858730
:101FA0001092D9021092D8028BE791E09093D70259
:101FB0008093D60280914603811113C01092410391
:101FC000109240038EE892E0909343038093420383
:101FD0008FE290E0909345038093440381E08093E7
:101FE00046030E944708FC01A385B485109729F495
:101FF00080E493E0948783870BC08D919C91119727
:10200000009711F0DC01F9CF80E493E08D939C936D
:10201000258536858091440390914503820F931F57
:10202000968785870895991B79E004C0991F9617B4
:1020300008F0961B881F7A95C9F78095089597FB3D
:10204000072E16F4009407D077FD09D00E943910AE
:1020500007FC05D03EF4909581959F4F08957095AB
:1020600061957F4F0895EE0FFF1F0590F491E02DCD
:102070000994AA1BBB1B51E107C0AA1FBB1FA617CF
:10208000B70710F0A61BB70B881F991F5A95A9F721
:0E20900080959095BC01CD010895F894FFCF86
:10209E0000C18081000000FFFFFFFF00E100000093
:1020AE00000000000000009A021D03DD02C102DAEA
:1020BE0000D900D800D70071007300640066006775
:1020CE000068006A006B006C000000000000000059
:1020DE0000000006000C000900080007000F000BAE
:1020EE00000300020004000A0005000D00000000BD
:1020FE000000000000000000000000B809350A1BB7
:10210E000AD909F709CE0900000000780929020052
:00000001FF
